:020000020000FC
:100000000FEF04BB10E01ABB29B3322F51E062E0BE
:1000100073E084E095E0A6E0B7E0C8E0D9E0E0E076
:10002000351791F03617A1F03717B1F03817C1F036
:100030003917D1F03A17E1F03B17F1F03C1701F115
:100040003D1711F13E1721F136E035BB0C94040049
:100050003BE535BB0C9404003FE435BB0C94040035
:1000600036E635BB0C9404003DE635BB0C94040029
:100070003DE735BB0C94040037E035BB0C9404001D
:100080003FE735BB0C9404003FE635BB0C940400FD
:080090003FE335BB0C940400B2
:00000001FF
