:0E0000000C9462000C9400000C9400000C9410
:10000E0000000C9400000C9400000C9400000C9462
:10001E0000000C9400000C9400000C9400000C9452
:10002E0000000C9400000C9400000C9400000C9442
:10003E0000000C9400000C9400000C9400000C9432
:10004E0000000C9400004848204D4D2053530043AF
:10005E0048524F4E4F4D455445520030000080C01F
:10006E0001002D4E414E00494E460000090060022F
:10007E0054000C0069025D00020075026900020066
:10008E007702690002007902690002007B026900B2
:10009E0009007D02540002008602690002008802F7
:1000AE00690002008A02690002008C026C000100E5
:1000BE0090026E000000F894EE27ECBBF1E0FBBF5F
:1000CE00EBBFE5BF8DE0A2E0BB27ED938A95E9F784
:1000DE0080E098E0A0E6ED930197E9F7EAE7F0E01B
:1000EE0085919591009761F0A591B5910590159028
:1000FE00BF01F00105900D920197E1F7FB01F0CFE2
:10010E00EFE5EDBFE8E0EEBFC0E6D2E00C948F0065
:10011E006297E0E0EA83EB83EC83ED83EE83EF837B
:10012E00E6E4E887E0E0E987A0E10E948703E4E0E7
:10013E000E94E803A0E6B2E00E946503EFEFE7BB82
:10014E00E0EFE1BB909A919A929AAA81BB811197A6
:10015E0009F08AC00E943803E3E00E94E803A9E692
:10016E00B2E00E94650300E010E0E881F98131966B
:10017E00E883F983A881B9811A9729F4E0E0E8832E
:10018E00E9830F5F1F4FECE3F0E0E017F10721F476
:10019E0000E010E02F5F3F4FECE3F0E0E217F307D3
:1001AE0021F420E030E04F5F5F4FE8E1F0E0E4172C
:1001BE00F50711F440E050E00E94EC03E2E00E94EB
:1001CE00F2034A30E0E05E0724F4A5E7B2E00E94B5
:1001DE0065030E94F603E4E00E94F2030E94FD0311
:1001EE00E5E00E94F2032A30E0E03E0724F4A7E7A0
:1001FE00B2E00E9465030E940604E7E00E94F2034B
:10020E000E940D04E8E00E94F2030A30E0E01E07AF
:10021E0024F4A9E7B2E00E9465030E941604EAE006
:10022E000E94F203AAE30E944B03E881F981FA933C
:10023E00EA93DE0150960E94BA03EBE00E94F203AD
:10024E00A881B9811A9724F4ABE7B2E00E94650346
:10025E00DE011E960E946503A0E20E944B03A4E6F7
:10026E00B0E00E94400481CFE4E00E94E803ADE7D5
:10027E00B2E00E946503E0E0EC87ED87A885B985C2
:10028E00119741F4E6E4F0E0E887F987E2E0F0E068
:10029E00EC87FD87A885B985129741F4E6E4F0E076
:1002AE00E887F987E4E0F0E0EC87FD87EAE05E2E70
:1002BE00E0EFE2BB94980E941D04809904C0E1E037
:1002CE005E2E809BFECF819904C0E2E05E2E819B64
:1002DE00FECF829904C0E3E05E2E829BFECF949AFD
:1002EE0095980E941D04809904C0E4E05E2E809BC8
:1002FE00FECF819904C0E5E05E2E819BFECF8299F0
:10030E0004C0E6E05E2E829BFECF959A96980E94E0
:10031E001D04809904C0E7E05E2E809BFECF81997C
:10032E0004C0E8E05E2E819BFECF829904C0E9E016
:10033E005E2E829BFECF969A97980E941D048099FE
:10034E0004C0EBE05E2E809BFECF819903C0552446
:10035E00819BFECF829904C0ECE05E2E829BFECF85
:10036E00979AEAE0E51509F478C0EBE0E51521F07F
:10037E00E52DF0E0EA87FB87EBE0E51541F4E1E0DF
:10038E00F0E0EA83FB83E0E0E883E983DECEECE095
:10039E00E51519F40E94380367CF58BAEC85FD8530
:1003AE003196EC87FD87AC85BD85119711F44A8592
:1003BE005B85AC85BD85129721F4FA010E9421045C
:1003CE00AF010E94EC03E4E00E94F2030E94F603E8
:1003DE00E6E00E94F203AAE30E944B03AC85BD85C2
:1003EE00139711F42A853B85AC85BD85149721F4AE
:1003FE00F9010E9421049F013A932A93DE0152963D
:10040E000E94BA03E7E00E94F2030E940604E9E0AC
:10041E000E94F203AAE30E944B03AC85BD8515979B
:10042E0011F40A851B85AC85BD85169729F4F80154
:10043E000E9421048F0112C01A930A93DE01539673
:10044E000E94BA03EAE00E94F2030E941604E9E059
:10045E000E94F203AAE30E944B0310CF4931E0E061
:10046E005E071CF0EEE0E8BBFFCE2C33E0E03E076B
:10047E003CF0E1E0F0E0E887F987EEE0E8BBF4CE8F
:10048E000C33E0E01E073CF0E2E0F0E0E887F9878D
:10049E00EEE0E8BBE9CEEDE0E8BBA19AA09A0F5FD3
:1004AE001F4FECE3F0E0E017F10721F400E010E05D
:1004BE002F5F3F4FECE3F0E0E217F30721F420E06B
:1004CE0030E04F5F5F4FE8E1F0E0E417F50711F41D
:1004DE0040E050E00E942A04EFE0F0E00E944E045B
:1004EE00E02119F00E94320422C00E942A04EEE19B
:1004FE00F0E00E944E04E02119F00E94320417C071
:10050E000E942A04EDE2F0E00E944E04E02119F070
:10051E000E9432040CC00E942A04E0E0F0E00E9427
:10052E004E04E02121F0A998A89A0E943204EC8191
:10053E00FD813196EC83FD83AC81BD81139711F45F
:10054E00A898A9980E94EC03E4E00E94F2034A30B6
:10055E00E0E05E0724F4A6E8B2E00E9465030E9484
:10056E00F603E6E00E94F2030E94FD03E7E00E941C
:10057E00F2032A30E0E03E0724F4A8E8B2E00E943D
:10058E0065030E940604E9E00E94F2030E940D0436
:10059E00EAE00E94F2030A30E0E01E0724F4AAE823
:1005AE00B2E00E9465030E941604E9E00E94F20385
:1005BE00AAE30E944B03A8EEB3E00E9440046FCF63
:1005CE00FFCFFFE0FA95F1F70895AAB3AF70AABB7B
:1005DE00D99AD898F6DFDA9AF4DFA9B3DA98F1DF70
:1005EE00DA9AEFDFDA98A7FDF5CF0895A07FAB2B4F
:1005FE00ABBBDA9A0E94E802DA980E94E8020895EC
:10060E00AA93D998AAB3A76FAABBBBB3BF70A88190
:10061E00EDDFA881A295EADFD99A0C94B803DA9A95
:10062E000E94E802E9B3DA980E94E802E07F08959A
:10063E000E94E802F4DFAE2FF2DFD998E295EA2BA2
:10064E000895AA930E94EC02E881F0E0E457FD4F72
:10065E00E081A981AE0F0E9407034980788022961F
:10066E0008950E94EC02A2E00E9407030E94EC0291
:10067E00ACE00E9407030E94EC02A1E00E94070377
:10068E00E0E07E2E4E2E0895AA93EF93FF93A8815D
:10069E006894AA3019F0E894461430F07394E0E0B0
:1006AE00EA93A72DCEDF36F043948FDFD89AA88138
:1006BE000E940703FF91EF910C94B803BA93AA938B
:1006CE001A93A981BA81ED91A983BA831E2FE030C6
:1006DE0019F0A12FD9DFF5CF188123960895AA27F7
:1006EE00BB271197F1F70895AA93D998AAB3A76FCC
:1006FE00AABBBBB3BF70A8810E94FD02D99A31C0BC
:10070E00AA93DA98D8986880E881E058E0938E0230
:10071E00E881E054E0938F020E9437040E94370470
:10072E000E943704DCDFA0E2DFDFD9DFA8E20E94FF
:10073E003C04A4E00E943C04A5E80E943C04AAB339
:10074E00AF70AABBD99A0E941F03E53011F0E0E00A
:10075E0008C00E94EC02A6E00E9407030E94380324
:10076E00E1E021960895BA93AA93A991B991E991DE
:10077E00F99130962AF4E095F09531966DE26D93ED
:10078E00E89480E197E20DD088EE93E00AD084E6FB
:10079E00992707D08AE005D06E2F10D066276C936C
:1007AE0008956627E817F90720F06395E81BF90B03
:1007BE00C9F7662311F416F008956894605D6D9381
:1007CE000895EA93A0E00C9428035A934A93DE010D
:1007DE0051960C94BA03EA93A1E00C942803DE011F
:1007EE001F960E946503A0E20C944B03AAE30E949D
:1007FE004B033A932A93DE0152960C94BA03DE0110
:10080E0050960E946503A0E20C944B03AAE30E944B
:10081E004B031A930A93DE0153960C94BA03DE012E
:10082E0051960E946503A0E20C944B03A5E0B0E044
:10083E000C944004AAE0B0E00E945C04AA85BB853B
:10084E00EA0FFB1F0895D801E0E0F0E00E944E048D
:10085E000E2ED9010895A99AE0E0EC83ED83089558
:10086E000E947603A0E30C947B030E9407030C9472
:10087E007603109639F080ED97E00197F1F7A89581
:10088E001197C9F70895F195E195F0400895EA178B
:10089E00FB07E1E009F0EE270895FA9FF02DEB9F9C
:1008AE00F00DEA9FE02DF10D089504D0F6DF0EF461
:1008BE00EADF0895E894F7FF02C0E5DF6894B7FF1A
:1008CE0006C0A095B095119600F8039400FA08950D
:00000001FF
